:030000000211AE3C
:0C11AE00787FE4F6D8FD7581220211F56F
:10182C00C2A58F807F017E0012183DD2A77F057E56
:01183C0000AB
:10183D00D3EF9400EE9400400F7DC77C01DCFEDDFC
:08184D00FAEF1F70EB1E80E8AA
:011855002270
:0A196000C2A7C2A612182CC2A722CB
:0A196A00C2A7D2A612182CC2A722B1
:101914007F381219607F0C1219607F061219607FDC
:041924000102196043
:10192800120935FF600C12196A740129F9E43AFAB0
:0319380080EE221C
:1016230020202053504143453A2025303364202065
:101633002000202020204E4F20454E545259212077
:101643002020005549443A002558000A004C4544DF
:101653000A00FFFFFFFF00000000FFFFFFFF01FE86
:0C16630001FE00000001FFFFFFFFFFFF81
:1018A50082110063821300019100202020535041D2
:0B18B50043453A203130302020200055
:1018E200E4F584F585F591F592F5B175B2FF758051
:0B18F200FF7590FF75B0FF75A0FF228E
:10056D001218FD1219141200161218E21217871222
:10057D00197412194E788C74FFF2087416F20874FF
:10058D0023F27811E2FF08E2788FCFF208EFF27BC9
:10059D00FE7A007900120082C290C2917814E27046
:1005AD000218E27F80700B1219607BFF7A16793585
:1005BD0080091219607BFE7A007900121928D2A0E9
:1005CD007BFE7A0079157F521212C0782AEFF26005
:1005DD000E1218FD12178712197412194E80DF7B37
:1005ED00FE7A007915120FDE782AEFF270D07BFFBC
:1005FD007A167946120088E4782BF2782BE2FFC345
:10060D009404502774152FF8E2FF7E00782CEEF23B
:10061D0008EFF2FF7BFF7A16794B788CEEF208EF3C
:10062D00F2120088782BE204F280D07BFF7A1679E3
:10063D004E120088C2A07BFE7A00791512107D78CB
:10064D002AEFF260030205CB783374FEF2087400D2
:10065D00F2087415F27BFF7A1679697D017F6012BD
:10066D00111C782AEFF260030205CB7BFF7A167915
:10067D00557F01120C21782AEFF260030205CB7B26
:10068D00FF7A1679657D017FC0120DE5782AEFF2AC
:10069D0060030205CB7D027F01120812782AEFF26A
:1006AD0060030205CB7BFE7A0079157F02121341A0
:1006BD00782AEFF260030205CB7BFF7A1679501290
:0A06CD000088D2A01215870205CBA9
:0B001600D288D2A8D28AD2AAD2AF2290
:0300030002166F73
:10166F00C0E0C0F0C083C082C0D075D000C000C041
:10167F0001C002C003C004C005C006C0077F0A7EB8
:10168F00001218C420B207C290D29130B2FDC2919D
:10169F00D007D006D005D004D003D002D001D0009F
:0B16AF00D0D0D082D083D0F0D0E03249
:030013000216BA18
:1016BA00C0E0C0F0C083C082C0D075D000C000C0F6
:1016CA0001C002C003C004C005C006C0077F0A7E6D
:1016DA00001218C420B307D290C29130B3FDC29051
:1016EA00D007D006D005D004D003D002D001D00054
:0B16FA00D0D0D082D083D0F0D0E032FE
:10143E004745544D5347004F50454E0A004D252EFB
:10144E003164253033640A004F4B0A005345545320
:10145E00504143450A0020202053504143453A2035
:10146E002530336420202000202020202020202022
:10147E00202020202020202000534554414C4C4F4A
:10148E0057414E43450A000A00414C4C4F57004409
:10149E00454E4E590053455400202020204E4F20DB
:0A14AE00454E545259212020200021
:0318C0008129007B
:1014B800C2AF788A74FFF2087414F208743EF20816
:0C14C800E4F2087406F212123AEF704CC5
:1014D4007BFF7A14794512185C788C74FFF20874D7
:1014E40014F208744BF27813E2FF08E2788FCFF21B
:1014F40008EFF27811E2FF08E27891CFF208EFF2F8
:101504007BFE7A0079701200827BFE7A0079701279
:0C151400185C7F0A7E001218C4121856E2
:03152000D2AF2225
:1015D6007870EBF208EAF208E9F2C2AF7870E2FB43
:1015E60008E2FA08E24A4B60337870E2FB08E2FA56
:1015F60008E2F9120935FF6021C3648094E1400DC9
:10160600D3EF648094FA500574E012097B7872E295
:0D1616002401F218E23400F280CFD2AF229E
:0A0A41007870EBF208EAF208E9F21F
:100A4B00E408F208F2C2AF7BFF7A14795A12185CF1
:100A5B007870E2FB08E2FA08E2F9120935602EFB26
:100A6B003395E0FA08E2FE08E2FF7C007D0A1209EA
:100A7B00D1EF2BFFEE3ACF24D07874F2EF34FF187E
:100A8B00F218E22401F218E23400F280C37873E228
:100A9B00FE08E2FFD39463EE648094804003020B64
:010AAB003713
:100AAC007811EEF2FE08EFF2FF788C74FFF2087406
:100ABC0014F2087464F208EEF208EFF27BFE7A008E
:100ACC0079001200827F801219607BFE7A00790017
:100ADC001219287FC01219607BFF7A1479761219CB
:100AEC00287F0A7E001218C41218567F0A7E001244
:100AFC0018C4788C74FFF2087414F208744BF278F2
:100B0C0013E2FF08E2788FCFF208EFF27811E2FFE0
:100B1C0008E27891CFF208EFF27BFE7A0079751239
:0B0B2C0000827BFE7A00797512185CD5
:020B3700D2AF3B
:010B39002299
:0A06D7007870EBF208EAF208E9F28D
:1006E100C2AF7BFF7A14798712185C7870E2FB083D
:1006F100E2FA08E2F912185C7BFF7A147995121874
:100701005C788A74FFF2087414F2087497F208E4B2
:10071100F2087405F27870E2FB08E2FA08E2F912D5
:10072100123AEF70107813F20804F27F0A7E001279
:1007310018C4121856788A74FFF2087414F20874F7
:100741009DF208E4F2087405F27870E2FB08E2FA1F
:1007510008E2F912123AEF700E7813F208F27F0AEA
:10076100FE1218C4121856788A74FFF2087414F233
:100771000874A3F208E4F2087403F27870E2FB084B
:10078100E2FA08E2F912123AEF70217814E27002EB
:1007910018E270087813F20804F28006E47813F284
:1007A10008F27F0A7E001218C41218567814E270FB
:1007B1000218E27F80700B1219607BFF7A1479A70F
:1007C10080091219607BFE7A007900121928788C51
:1007D10074FFF2087414F208744BF27813E2FF0804
:1007E100E2788FCFF208EFF27811E2FF08E2789118
:1007F100CFF208EFF27BFE7A0079731200827BFE62
:100801007A00797312185C7F0A7E001218C4D2AF85
:0108110022C4
:0A0F3A00786DEBF208EAF208E9F224
:100F440012093524D0FEC2AF1215D6AF06EFB4078E
:100F5400004003020FDB900F61F8282873020F761C
:100F6400020F8A020F9E020FB2020FBB020FC402CD
:100F74000FC9786DE2FB08E2FA08E22401F9E43AC9
:100F8400FA1214B88051786DE2FB08E2FA08E22400
:100F940001F9E43AFA120A41803D786DE2FB08E275
:100FA400FA08E22401F9E43AFA1206D780297FB854
:100FB4007E0B1217FE80207FB87E0B1217D080178D
:100FC400120B3A8012786DE2FB08E2FA08E224017F
:090FD400F9E43AFA120D08D2AF5B
:010FDD0022F1
:061856007BFF7A147956B5
:10185C00C2AF120935FF6010F5993099FDC2997429
:10186C000129F9E43AFA80EA8F993099FDC299D2AC
:02187C00AF2299
:1018FD00759850758920758DFA758BFAD2ACD2AF6B
:07190D00D28ED299D298227C
:030023000213C104
:1013C100C0E0C0F0C083C082C0D075D000C000C0F2
:0D13D10001C002C003C004C005C006C00773
:1013DE00E4FFFE309832C298AD99ED640A6019EDC3
:1013EE00640D60147829E2C39410500CE2FC04F2F0
:1013FE00745C2CF8EDF280107829E2FF245CF8E49E
:10140E00F2AE077829F27F01EFB401097BFE7A0074
:05141E00795C120F3A99
:10142300D007D006D005D004D003D002D001D0001D
:0B143300D0D0D082D083D0F0D0E032C7
:101523002020202057656C636F6D652120202020CB
:101533000020202053504143453A20253033642076
:1015430020200020202020202020202020202020B8
:10155300202020004D252E3164253033640A0054A9
:101563004845205041524B2049532046554C4C008E
:1015730042415255500A004F4B0A00424152444FD8
:04158300574E0A00B5
:1018C400D3EF9400EE940040147D6E7C00ED1D7007
:0D18D400011CED4C70F7EF1F70E61E80E365
:0118E10022E4
:100B3A00D37812E2940018E294005003020C097868
:100B4A0014E2700218E27003020C09C2AF7FC012ED
:100B5A0019607BFF7A1579231219287FB87E0B1248
:100B6A0017FE1217C57812E224FFF218E234FFF2D8
:100B7A00788C74FFF2087415F2087434F27811E272
:100B8A00FF08E2788FCFF208EFF27BFE7A00790055
:100B9A00120082121914E47870F27870E2FFC3949A
:100BAA0010501274002FF8E2FF600A12196A787066
:100BBA00E204F280E57FC01219607BFF7A1579465C
:100BCA00121928788C74FFF2087415F2087457F217
:100BDA007813E2FF08E2788FCFF208EFF27811E299
:100BEA00FF08E27891CFF208EFF27BFE7A00797182
:100BFA001200827BFE7A00797112185CD2AF2278D9
:100C0A0012E2700218E2700E7FC01219607BFF7A3E
:060C1A0015796212192891
:010C200022B1
:0A0D08007870EBF208EAF208E9F255
:100D1200C37812E2946318E294004003020DE4786F
:100D220014E2700218E27003020DE4C2AF7FC01237
:100D320019607870E2FB08E2FA08E2F91219287FDA
:100D4200B87E0B1217FE1217C57812E22401F218B0
:100D5200E23400F2788C74FFF2087415F2087434ED
:100D6200F27811E2FF08E2788FCFF208EFF27BFE11
:100D72007A007900120082121914E47873F27873FF
:100D8200E2FFC39410501274002FF8E2FF600A12BF
:100D9200196A7873E204F280E57FC01219607BFF62
:100DA2007A157946121928788C74FFF2087415F2B4
:100DB200087457F27813E2FF08E2788FCFF208EF57
:100DC200F27811E2FF08E27891CFF208EFF27BFEAF
:100DD2007A0079741200827BFE7A00797412185CB0
:020DE200D2AF8E
:010DE40022EC
:1017FE00787EEEF208EFF27BFF7A15797312185CA1
:10180E00C2AFC290D291787EE2FE08E2FF1218C4F7
:0E181E00C2917BFF7A15797A12185CD2AF2244
:0B17C5007F407E1F1218C47FB87E0B0F
:1017D000787EEEF208EFF27BFF7A15797E12185CC4
:1017E000C2AFD290C291787EE2FE08E2FF1218C426
:0E17F000C2907BFF7A15797A12185CD2AF2274
:0C12C000782EEFF208EBF208EAF208E9E1
:1012CC0012193B7D077F0D12174C7D037F14120002
:1012DC0006782EE27834F2784F7401F20874FEF23C
:1012EC00087400F2087434F20874FEF2087400F208
:1012FC00087432F27A0079341203A2EF7034783326
:10130C00E26410700218E270297834E2FE782FE261
:10131C00FB08E2FA08E2F9EE12099D7835E2FE7854
:10132C002FE2FB08E2FA08E2F9900001EE1209AF95
:04133C0080027FFEAE
:01134000228A
:0A0FDE00782EEBF208EAF208E9F2BF
:100FE800E4783212193BE4FD7F0D12174C7D807FA7
:100FF8000E12194078357493F2087420F2784F7401
:1010080002F20874FEF2087400F2087435F20874EB
:10101800FEF2087400F2087433F27BFE7A00793528
:101028007F0C1203A67831EFF2703EFF74352FF86B
:10103800E2FE782EE2FB08E2FA08E2F98F82758375
:1010480000EE1209AF7832E2FE74352FF8E2FDEEB9
:101058006D7832F20FEFB404D374352FF8E2FF78CD
:1010680032E26F60041874FEF27D807F0E12000673
:041078007831E2FFEA
:01107C002251
:0A107D00782EEBF208EAF208E9F21F
:1010870078337493F2087470F2E47839F2FF782EAB
:10109700E2FB08E2FA08E2F98F8275830012094E33
:1010A700FE74352FF8EEF27839E2FE8F82758300F1
:1010B70012094EFDEE6D7839F20FEFB404D0784A7D
:1010C70074FEF2087400F208743AF27BFE7A007933
:1010D700337D07120EA712193C784F7409F2087472
:1010E700FEF2087400F2087433F20874FEF2087412
:1010F70000F2087431F27BFE7A0079337F0C120319
:10110700A6EF700E7832E26418700218E27003FFDF
:0411170080027FFED5
:01111B0022B1
:0A111C007830EBF208EAF208E9F27D
:101126007839EFF208EDF2E4FF7830E2FB08E2FAF4
:1011360008E2F98F8275830012094EFE743B2FF880
:10114600EEF20FEFB406E2E4FF7833E2FB08E2FAD0
:1011560008E2F98F8275830012094EFE74412FF85A
:10116600EEF20FEFB406E2784F740CF20874FEF25A
:10117600087400F2087439F20874FEF2087400F27A
:10118600087437F27BFE7A0079397F0E1203A6784F
:1011960036EFF270097F0812170BEF20E305783659
:0711A60074FEF27836E2FF4F
:0111AD00221F
:0A134100782EEBF208EAF208E9F258
:10134B0078337430F208EFF2784A74FEF2087400C6
:10135B00F2087435F27A007933120EA3784F7404C5
:10136B00F20874FEF2087400F2087433F20874FE8B
:10137B00F2087400F2087431F27BFE7A0079337F45
:10138B000C1203A6EF702C7832E26490700218E214
:10139B007021FE74332EF8E2FD782EE2FB08E2FAA0
:1013AB0008E2F98E82758300ED1209AF0EEEB410D0
:0513BB00E280027FFE4C
:0113C000220A
:0A0C2100782EEBF208EAF208E9F27F
:100C2B00783374A0F208EFF2784A74FEF20874007D
:100C3B00F2087435F27BFE7A0079337D02120EA72F
:100C4B00784F7404F20874FEF2087400F2087433DF
:100C5B00F20874FEF2087400F2087431F27BFE7A2B
:100C6B000079337F0C1203A6EF70147832E2640420
:100C7B00700218E270097833E2540F640A60027F45
:100C8B00FEEF7078FE782EE2FB08E2FA08E2F98EAE
:100C9B008275830012094EFD74332EF8EDF20EEEC1
:100CAB00B410E2784A74FEF2087400F2087443F24E
:100CBB007BFE7A0079337D10120EA7784F7412F2F7
:100CCB000874FEF2087400F2087433F20874FEF232
:100CDB00087400F2087431F27BFE7A0079337F0CD2
:100CEB001203A6EF70147832E26404700218E270FB
:0C0CFB00097833E2540F640A60027FFEA7
:010D070022C9
:0E0DE500782FEBF208EAF208E9F2782EEDF230
:100DF3007834EFF208ED120E91120381EF7014783C
:100E030033E26404700218E270097834E2540F6428
:100E13000A60027FFEEF7049FE782FE2FB08E2FAD8
:100E230008E2F98E8275830012094EFD74342EF8A0
:100E3300EDF20EEEB410E2784A74FEF2087400F29A
:100E4300087438F27BFE7A0079347D04120EA7E42D
:100E53007832F208F27406120383EF64FE6002E450
:100E6300FFEF7029783474B0F2782EE27835120EE1
:100E730091120381EF70147833E26404700218E274
:0D0E830070097834E2540F640A60027FFEAB
:010E9000223F
:04081200782EEDF25D
:10081600783174C2F208EFF2784A74FEF208740076
:10082600F2087433F27BFE7A0079317D02120EA74C
:10083600784F7404F20874FEF2087400F2087431FA
:10084600F20874FEF2087400F208742FF27BFE7A46
:100856000079317F0C1203A6EF70147830E264043D
:10086600700218E270097831E2540F640A60027F60
:10087600FEEF70507831F208F208F208F2784A7406
:10088600FEF2087400F2087435F27BFE7A007931C4
:100896007D04120EA7784F7406F20874FEF20874EF
:1008A60000F2087431F20874FEF2087400F208745B
:1008B6002FF27BFE7A0079317F0C1203A6EF64FEDD
:1008C6006002E4FFEF60037FFE22783174B0F278B5
:1008D6002EE27832F2784A74FEF2087400F2087456
:1008E60033F27BFE7A0079317D02120EA7784F74BF
:1008F60004F20874FEF2087400F2087431F2087407
:10090600FEF2087400F208742FF27BFE7A00793149
:100916007F0C1203A6EF70147830E264047002189C
:0E092600E270097831E2540F640A60027FFE2D
:0109340022A0
:1015870078317450F2E408F2784A74FEF208740075
:10159700F2087433F27BFE7A0079317D02120EA7CE
:1015A700784F7404F20874FEF2087400F20874317C
:1015B700F20874FEF2087400F208742FF27BFE7AC8
:0E15C7000079317F0C1203A6782EEFF27F0020
:0115D50022F3
:100E9100F2784A74FEF2087400F2087436F27A00AD
:060EA10079347BFE7D02A6
:0D0EA7007846EBF208EAF208E9F208EDF2F5
:100EB4007D047F051219401217487D807F0A1200B5
:100EC40006E4784DF27849E2FF784DE2FEC39F5084
:100ED4001F7846E2FB08E2FA08E2F98E8275830085
:100EE40012094EFD7F0912174C784DE204F280D5A9
:100EF4007D037F0112174C784D74FFF27F051217A2
:100F04000B784DE214F2E26004EF30E2EF7F22123C
:100F1400170B784AE2FB08E2FA08E2F9EF12099D9E
:100F24007F2112170B784AE2FB08E2FA08E2F990F3
:060F34000001EF0209AF0D
:10178700D29200C29200D292007D0F7F0112174CB5
:10179700007D3D7F1112174C7D1E7F2D12174CE4E3
:1017A700FD7F2C12174C7D8D7F2A12174C7D3E7FB3
:0E17B7002B12174C7D407F1512174C7F00221D
:06170500AC07AB05E4FE99
:10170B00E4FEC295C296EF25E0547E4480FF7D082F
:10171B00EF30E703D38001C39294D295EF25E0FF1E
:10172B00C295DDEC7D08D295EE25E0FEA293E43365
:0C173B004EFEC295DDF0D296D295AF06AE
:01174700227F
:04174800E4FD7F013C
:10174C00C295C296EF25E0547EFF7E08EF30E7038A
:10175C00D38001C39294D295EF25E0FFC295DEECC5
:10176C007E08ED30E703D38001C39294D295ED252A
:0A177C00E0FDC295DEECD296D29596
:011786002240
:0D000600121705AE07AF04EB4EFD02174CBC
:05193B00F27D087F08A9
:0E194000121705AE07AF04EBF45EFD02174C64
:100381007404784FF20874FEF2087400F2087434B1
:10039100F20874FEF2087400F2087432F27A0079FD
:0503A100347BFE7F0C1F
:0E03A600784CEBF208EAF208E9F2784BEFF23D
:1003B400785674FEF2E408F208F2EF24F4600F2495
:1003C400FE701478577412F2087410F2800978578A
:1003D4007477F2087430F27857E24480FD7F021299
:1003E400174C7D807F041219401217487D807F0AC4
:1003F400120006E4785AF208F2784FE2FF785AE2E3
:10040400FC08E2FDC39FEC94005024784CE2FB0806
:10041400E2FA08E2F98D828C8312094EFD7F0912FB
:10042400174C785BE22401F218E23400F280CA78B7
:100434004BE2FD7F0112174CE2B40C077D807F0D67
:10044400120006785A7402F2087458F27F041217E4
:100454000B7859EFF2785BE224FFF218E234FFF2F2
:1004640008E2700218E2600E7859E2FF20E00718F3
:10047400E2FEEF5E60D67D807F0D121940785BE26C
:10048400700218E2700302055E7F0612170BEF5428
:100494001B60030205597856F208E2FF7859E25FBF
:1004A40030E005785674FFF2784BE2640C60030286
:1004B400055E7F0A12170B7859EFF27F0C12170BA7
:1004C400EF5407FD6025E224FFFFE434FFFEEF78DC
:1004D40003C333CE33CED8F97C002DFFEC3EF9783C
:1004E40053E2FB08E2FA08E2C980147859E275F095
:1004F40008A4FF7853E2FB08E2FA08E2F9E5F08F7A
:10050400F01209E37859E2700204F27859E2D394C4
:100514001240037412F2E4785AF208F27859E2FFB6
:10052400C3785BE29F18E29400502F7F0912170BE7
:100534007850E2FB08E2FA08E2F9785AE2FC08E2B1
:10054400F5828C83EF1209AF785BE22401F218E2A2
:100554003400F280C7785674FEF27D807F0C12005E
:08056400061217487856E2FF69
:01056C00226C
:10194E007F1412170BEF540370077D037F141200E0
:01195E000682
:01195F002265
:071974007D037F14021940FE
:1011BA0002056DE493A3F8E493A34003F68001F2D9
:1011CA0008DFF48029E493A3F85407240CC8C33336
:1011DA00C4540F4420C8834004F456800146F6DF05
:1011EA00E4800B01020408102040809018A5E47ED8
:1011FA00019360BCA3FF543F30E509541FFEE493FA
:10120A00A360010ECF54C025E060A840B8E493A3C0
:10121A00FAE493A3F8E493A3C8C582C8CAC583CAEB
:10122A00F0A3C8C582C8CAC583CADFE9DEE780BEA3
:0118C3000024
:10093500BB010689828A83E0225002E722BBFE02C0
:09094500E32289828A83E49322F3
:10094E00BB010CE58229F582E5833AF583E022505E
:10095E0006E92582F8E622BBFE06E92582F8E222A8
:0D096E00E58229F582E5833AF583E49322C2
:10097B00BB010989828A83F8E028F022500327F70C
:10098B0022BBFE05F8E328F3228A838982F8E493DD
:02099B00282210
:10099D00BB010689828A83F0225002F722BBFE0139
:0209AD00F32233
:1009AF00F8BB010DE58229F582E5833AF583E8F07E
:1009BF00225006E92582C8F622BBFE05E92582C82A
:0209CF00F22212
:1009D100EF8DF0A4A8F0CF8CF0A428CE8DF0A42E3A
:0209E100FE22F4
:1009E300BB010A89828A83F0E5F0A3F0225006F75F
:0F09F30009A7F01922BBFE06F3E5F009F319225C
:10002600E50D248CF8E2050D227889301002788CD3
:10003600E475F001120A020209352009EB7F2ED27F
:10004600098018EF540F2490D43440D4FF300D0BA0
:10005600EF24BFB41A0050032461FFE50E600215B9
:100066000E0511E5117002051030100D7889E47542
:10007600F001120A02EF02099D02187E7403D210E3
:100086008003E4C210F50D7889120A12E4F50EF524
:1000960010F511E50E60077F2012006180F5750FDF
:1000A600FFC20AC209C20BC20CC20EC20FC2111293
:1000B600002FFF700D3010057F00120072AF11AED9
:1000C6001022B4255FC2D5C20D12002FFF24D0B472
:1000D6000A00501A75F00A780E30D50508B6FF01E9
:1000E60006C6A426F620D5047002D20C80D924CFE9
:1000F600B41A00EF5004C2E5D20D020271D20A8092
:10010600C6D20980C0D20B80BCD2D580BAD20E80AE
:10011600B47F20120061200B077401B50E0040F178
:10012600120026FF120061020099D211D20F8095AB
:10013600120026FB120026FA120026F94A4B700618
:1001460079427A037BFF200B2EE50E602A7E008E15
:100156008275830012094E60060EEE650F70F0C2BE
:10016600D5EBC0E0EAC0E0E9C0E0EE1202B8D0E0AC
:10017600F9D0E0FAD0E0FB120935FF60AAEBC0E047
:10018600EAC0E0E9C0E0120061D0E02401F9D0E065
:100196003400FAD0E0FBE50F0460DCD50FD9808788
:1001A6007BFF7A0279B4D20B809C791080027908A1
:1001B600C20FC2118008D2D5790A8004790AC2D545
:1001C600E50F047002F50FE4FAFDFEFF120026FCAF
:1001D6007B08200A13120026FD7B1030090A120044
:1001E60026FE120026FF7B20EC3382D592D55013D3
:1001F600C3E43009069FFFE49EFEE4200A039DFD4A
:10020600E49CFCE4CBF8C20AEC700CCFCECDCCE873
:1002160024F8F870F38017C3EF33FFEE33FEED33A7
:10022600FDEC33FCEB33FB994002FB0FD8E9EB30D6
:100236000A05F8D0E0C448B20AC0E00AEC4D4E4FB9
:1002460078207B0070C2EAB50F0040BCC0E0120205
:10025600BAD0F0D0E0200A04C4C0E0C4B20AC0F0AC
:1002660012004AD0F0D5F0EB020099120A1B0136B3
:100276005301B05801074C01034201B44F01BC447D
:1002860001BC49011C4301C25501A64601A6450110
:01029600A6C1
:1002970047036250010B2D010F2E01322B0113234F
:1002A700013020034B2A00CB480000012A3F3F3F83
:1002B70000790AA2D5200C14300E09B910020404E3
:1002C700B9080104A2D5200F02500104200B68923F
:1002D7000BB50E005034C0E07F20300C197F30A2E0
:1002E7000B720F720E500F120311C20BC20FC20E08
:1002F700C2117F30800F300E03E9C0E01200613079
:100307000E03D0E0F9D0E0B50ECC300E177F30B930
:10031700100C1200617F58300D077F788003B908F1
:1003270003120061300B057F2D0200617F20201131
:10033700F87F2B200FF322920B80CF286E756C6C01
:100347002900D20A120026300AF8C20A780E30D5E0
:100357000108F60200CB2D5043495812002624030A
:10036700B405004001E490035D93120052743A1201
:0A0377000052D20C750E040201B012
:10123A007887EBF208EAF208E9F2788AE2FB08E238
:10124A00FA08E2F9120935FE7887E2FB08E2FA08A1
:10125A00E2F9120935FF6E702EEF6010788D08E200
:10126A0024FFFDF218E234FFF24D70037F0022786A
:10127A0089E22401F218E23400F2788CE22401F2C5
:10128A0018E23400F280B37887E2FB08E2FA08E257
:10129A00F9120935FDD3EE6480F8ED6480984003B5
:1012AA007F0122788AE2FB08E2FA08E2F91209359C
:0612BA00FFC3ED9FFF22BF
:100A0200FAE2FB0808E2F925F0F218E2CA3AF22209
:090A1200EBF208EAF208E9F22215
:100A1B00D083D082F8E4937012740193700DA3A36A
:100A2B0093F8740193F5828883E47374029368607E
:060A3B00EFA3A3A380DF7E
:10187E00EFB40A07740D121889740A309811A899DA
:10188E00B8130CC2983098FDA899C298B811F630CA
:07189E0099FDC299F59922A2
:00000001FF
